:100000000C9434000C943E000C943E000C944C0074
:100010000C943E000C943E000C943E000C943E0068
:100020000C943E000C943E000C943E000C943E0058
:100030000C943E000C943E000C943E000C943E0048
:100040000C943E000C943E000C943E000C943E0038
:100050000C943E000C943E000C943E000C943E0028
:100060000C943E000C943E0011241FBECFEFD8E04C
:10007000DEBFCDBF0E9457000C945B000C940000C3
:10008000209AE8E6F0E0808184608083EDE6F0E08D
:1000900080818460808308951F920F920FB60F9223
:1000A0001124289A0F900FBE0F901F9018950E9450
:0A00B00040007894FFCFF894FFCFD2
:00000001FF
